{
  "_format": "hh-sol-artifact-1",
  "contractName": "MyToken",
  "sourceName": "contracts/erc1155.sol",
  "abi": [
    {
      "inputs": [
        {
          "internalType": "string",
          "name": "_uri",
          "type": "string"
        },
        {
          "internalType": "uint256",
          "name": "_maxSupply",
          "type": "uint256"
        }
      ],
      "stateMutability": "nonpayable",
      "type": "constructor"
    },
    {
      "inputs": [
        {
          "internalType": "address",
          "name": "sender",
          "type": "address"
        },
        {
          "internalType": "uint256",
          "name": "balance",
          "type": "uint256"
        },
        {
          "internalType": "uint256",
          "name": "needed",
          "type": "uint256"
        },
        {
          "internalType": "uint256",
          "name": "tokenId",
          "type": "uint256"
        }
      ],
      "name": "ERC1155InsufficientBalance",
      "type": "error"
    },
    {
      "inputs": [
        {
          "internalType": "address",
          "name": "approver",
          "type": "address"
        }
      ],
      "name": "ERC1155InvalidApprover",
      "type": "error"
    },
    {
      "inputs": [
        {
          "internalType": "uint256",
          "name": "idsLength",
          "type": "uint256"
        },
        {
          "internalType": "uint256",
          "name": "valuesLength",
          "type": "uint256"
        }
      ],
      "name": "ERC1155InvalidArrayLength",
      "type": "error"
    },
    {
      "inputs": [
        {
          "internalType": "address",
          "name": "operator",
          "type": "address"
        }
      ],
      "name": "ERC1155InvalidOperator",
      "type": "error"
    },
    {
      "inputs": [
        {
          "internalType": "address",
          "name": "receiver",
          "type": "address"
        }
      ],
      "name": "ERC1155InvalidReceiver",
      "type": "error"
    },
    {
      "inputs": [
        {
          "internalType": "address",
          "name": "sender",
          "type": "address"
        }
      ],
      "name": "ERC1155InvalidSender",
      "type": "error"
    },
    {
      "inputs": [
        {
          "internalType": "address",
          "name": "operator",
          "type": "address"
        },
        {
          "internalType": "address",
          "name": "owner",
          "type": "address"
        }
      ],
      "name": "ERC1155MissingApprovalForAll",
      "type": "error"
    },
    {
      "inputs": [
        {
          "internalType": "address",
          "name": "owner",
          "type": "address"
        }
      ],
      "name": "OwnableInvalidOwner",
      "type": "error"
    },
    {
      "inputs": [
        {
          "internalType": "address",
          "name": "account",
          "type": "address"
        }
      ],
      "name": "OwnableUnauthorizedAccount",
      "type": "error"
    },
    {
      "anonymous": false,
      "inputs": [
        {
          "indexed": true,
          "internalType": "address",
          "name": "account",
          "type": "address"
        },
        {
          "indexed": true,
          "internalType": "address",
          "name": "operator",
          "type": "address"
        },
        {
          "indexed": false,
          "internalType": "bool",
          "name": "approved",
          "type": "bool"
        }
      ],
      "name": "ApprovalForAll",
      "type": "event"
    },
    {
      "anonymous": false,
      "inputs": [
        {
          "indexed": true,
          "internalType": "address",
          "name": "previousOwner",
          "type": "address"
        },
        {
          "indexed": true,
          "internalType": "address",
          "name": "newOwner",
          "type": "address"
        }
      ],
      "name": "OwnershipTransferred",
      "type": "event"
    },
    {
      "anonymous": false,
      "inputs": [
        {
          "indexed": true,
          "internalType": "address",
          "name": "operator",
          "type": "address"
        },
        {
          "indexed": true,
          "internalType": "address",
          "name": "from",
          "type": "address"
        },
        {
          "indexed": true,
          "internalType": "address",
          "name": "to",
          "type": "address"
        },
        {
          "indexed": false,
          "internalType": "uint256[]",
          "name": "ids",
          "type": "uint256[]"
        },
        {
          "indexed": false,
          "internalType": "uint256[]",
          "name": "values",
          "type": "uint256[]"
        }
      ],
      "name": "TransferBatch",
      "type": "event"
    },
    {
      "anonymous": false,
      "inputs": [
        {
          "indexed": true,
          "internalType": "address",
          "name": "operator",
          "type": "address"
        },
        {
          "indexed": true,
          "internalType": "address",
          "name": "from",
          "type": "address"
        },
        {
          "indexed": true,
          "internalType": "address",
          "name": "to",
          "type": "address"
        },
        {
          "indexed": false,
          "internalType": "uint256",
          "name": "id",
          "type": "uint256"
        },
        {
          "indexed": false,
          "internalType": "uint256",
          "name": "value",
          "type": "uint256"
        }
      ],
      "name": "TransferSingle",
      "type": "event"
    },
    {
      "anonymous": false,
      "inputs": [
        {
          "indexed": false,
          "internalType": "string",
          "name": "value",
          "type": "string"
        },
        {
          "indexed": true,
          "internalType": "uint256",
          "name": "id",
          "type": "uint256"
        }
      ],
      "name": "URI",
      "type": "event"
    },
    {
      "inputs": [
        {
          "internalType": "address",
          "name": "account",
          "type": "address"
        },
        {
          "internalType": "uint256",
          "name": "id",
          "type": "uint256"
        }
      ],
      "name": "balanceOf",
      "outputs": [
        {
          "internalType": "uint256",
          "name": "",
          "type": "uint256"
        }
      ],
      "stateMutability": "view",
      "type": "function"
    },
    {
      "inputs": [
        {
          "internalType": "address[]",
          "name": "accounts",
          "type": "address[]"
        },
        {
          "internalType": "uint256[]",
          "name": "ids",
          "type": "uint256[]"
        }
      ],
      "name": "balanceOfBatch",
      "outputs": [
        {
          "internalType": "uint256[]",
          "name": "",
          "type": "uint256[]"
        }
      ],
      "stateMutability": "view",
      "type": "function"
    },
    {
      "inputs": [
        {
          "internalType": "address",
          "name": "account",
          "type": "address"
        },
        {
          "internalType": "uint256",
          "name": "id",
          "type": "uint256"
        },
        {
          "internalType": "uint256",
          "name": "value",
          "type": "uint256"
        }
      ],
      "name": "burn",
      "outputs": [],
      "stateMutability": "nonpayable",
      "type": "function"
    },
    {
      "inputs": [
        {
          "internalType": "address",
          "name": "account",
          "type": "address"
        },
        {
          "internalType": "uint256[]",
          "name": "ids",
          "type": "uint256[]"
        },
        {
          "internalType": "uint256[]",
          "name": "values",
          "type": "uint256[]"
        }
      ],
      "name": "burnBatch",
      "outputs": [],
      "stateMutability": "nonpayable",
      "type": "function"
    },
    {
      "inputs": [
        {
          "internalType": "uint256",
          "name": "id",
          "type": "uint256"
        },
        {
          "internalType": "uint256",
          "name": "balance",
          "type": "uint256"
        }
      ],
      "name": "burnToken",
      "outputs": [],
      "stateMutability": "nonpayable",
      "type": "function"
    },
    {
      "inputs": [],
      "name": "currentPrice",
      "outputs": [
        {
          "internalType": "uint256",
          "name": "",
          "type": "uint256"
        }
      ],
      "stateMutability": "view",
      "type": "function"
    },
    {
      "inputs": [
        {
          "internalType": "uint256",
          "name": "id",
          "type": "uint256"
        }
      ],
      "name": "exists",
      "outputs": [
        {
          "internalType": "bool",
          "name": "",
          "type": "bool"
        }
      ],
      "stateMutability": "view",
      "type": "function"
    },
    {
      "inputs": [
        {
          "internalType": "address",
          "name": "account",
          "type": "address"
        },
        {
          "internalType": "address",
          "name": "operator",
          "type": "address"
        }
      ],
      "name": "isApprovedForAll",
      "outputs": [
        {
          "internalType": "bool",
          "name": "",
          "type": "bool"
        }
      ],
      "stateMutability": "view",
      "type": "function"
    },
    {
      "inputs": [],
      "name": "maxSupply",
      "outputs": [
        {
          "internalType": "uint256",
          "name": "",
          "type": "uint256"
        }
      ],
      "stateMutability": "view",
      "type": "function"
    },
    {
      "inputs": [],
      "name": "mint",
      "outputs": [],
      "stateMutability": "payable",
      "type": "function"
    },
    {
      "inputs": [],
      "name": "owner",
      "outputs": [
        {
          "internalType": "address",
          "name": "",
          "type": "address"
        }
      ],
      "stateMutability": "view",
      "type": "function"
    },
    {
      "inputs": [],
      "name": "renounceOwnership",
      "outputs": [],
      "stateMutability": "nonpayable",
      "type": "function"
    },
    {
      "inputs": [
        {
          "internalType": "address",
          "name": "from",
          "type": "address"
        },
        {
          "internalType": "address",
          "name": "to",
          "type": "address"
        },
        {
          "internalType": "uint256[]",
          "name": "ids",
          "type": "uint256[]"
        },
        {
          "internalType": "uint256[]",
          "name": "values",
          "type": "uint256[]"
        },
        {
          "internalType": "bytes",
          "name": "data",
          "type": "bytes"
        }
      ],
      "name": "safeBatchTransferFrom",
      "outputs": [],
      "stateMutability": "nonpayable",
      "type": "function"
    },
    {
      "inputs": [
        {
          "internalType": "address",
          "name": "from",
          "type": "address"
        },
        {
          "internalType": "address",
          "name": "to",
          "type": "address"
        },
        {
          "internalType": "uint256",
          "name": "id",
          "type": "uint256"
        },
        {
          "internalType": "uint256",
          "name": "value",
          "type": "uint256"
        },
        {
          "internalType": "bytes",
          "name": "data",
          "type": "bytes"
        }
      ],
      "name": "safeTransferFrom",
      "outputs": [],
      "stateMutability": "nonpayable",
      "type": "function"
    },
    {
      "inputs": [
        {
          "internalType": "address",
          "name": "operator",
          "type": "address"
        },
        {
          "internalType": "bool",
          "name": "approved",
          "type": "bool"
        }
      ],
      "name": "setApprovalForAll",
      "outputs": [],
      "stateMutability": "nonpayable",
      "type": "function"
    },
    {
      "inputs": [
        {
          "internalType": "string",
          "name": "newuri",
          "type": "string"
        }
      ],
      "name": "setURI",
      "outputs": [],
      "stateMutability": "nonpayable",
      "type": "function"
    },
    {
      "inputs": [
        {
          "internalType": "bytes4",
          "name": "interfaceId",
          "type": "bytes4"
        }
      ],
      "name": "supportsInterface",
      "outputs": [
        {
          "internalType": "bool",
          "name": "",
          "type": "bool"
        }
      ],
      "stateMutability": "view",
      "type": "function"
    },
    {
      "inputs": [],
      "name": "totalSupply",
      "outputs": [
        {
          "internalType": "uint256",
          "name": "",
          "type": "uint256"
        }
      ],
      "stateMutability": "view",
      "type": "function"
    },
    {
      "inputs": [
        {
          "internalType": "uint256",
          "name": "id",
          "type": "uint256"
        }
      ],
      "name": "totalSupply",
      "outputs": [
        {
          "internalType": "uint256",
          "name": "",
          "type": "uint256"
        }
      ],
      "stateMutability": "view",
      "type": "function"
    },
    {
      "inputs": [
        {
          "internalType": "address",
          "name": "newOwner",
          "type": "address"
        }
      ],
      "name": "transferOwnership",
      "outputs": [],
      "stateMutability": "nonpayable",
      "type": "function"
    },
    {
      "inputs": [
        {
          "internalType": "uint256",
          "name": "",
          "type": "uint256"
        }
      ],
      "name": "uri",
      "outputs": [
        {
          "internalType": "string",
          "name": "",
          "type": "string"
        }
      ],
      "stateMutability": "view",
      "type": "function"
    }
  ],
  "bytecode": "0x608060405266038d7ea4c680006007553480156200001c57600080fd5b50604051620038b4380380620038b4833981810160405281019062000042919062000395565b33826200005581620000ec60201b60201c565b50600073ffffffffffffffffffffffffffffffffffffffff168173ffffffffffffffffffffffffffffffffffffffff1603620000cb5760006040517f1e4fbdf7000000000000000000000000000000000000000000000000000000008152600401620000c2919062000440565b60405180910390fd5b620000dc816200010160201b60201c565b5080600681905550505062000785565b8060029081620000fd91906200069e565b5050565b6000600360009054906101000a900473ffffffffffffffffffffffffffffffffffffffff16905081600360006101000a81548173ffffffffffffffffffffffffffffffffffffffff021916908373ffffffffffffffffffffffffffffffffffffffff1602179055508173ffffffffffffffffffffffffffffffffffffffff168173ffffffffffffffffffffffffffffffffffffffff167f8be0079c531659141344cd1fd0a4f28419497f9722a3daafe3b4186f6b6457e060405160405180910390a35050565b6000604051905090565b600080fd5b600080fd5b600080fd5b600080fd5b6000601f19601f8301169050919050565b7f4e487b7100000000000000000000000000000000000000000000000000000000600052604160045260246000fd5b6200023082620001e5565b810181811067ffffffffffffffff82111715620002525762000251620001f6565b5b80604052505050565b600062000267620001c7565b905062000275828262000225565b919050565b600067ffffffffffffffff821115620002985762000297620001f6565b5b620002a382620001e5565b9050602081019050919050565b60005b83811015620002d0578082015181840152602081019050620002b3565b60008484015250505050565b6000620002f3620002ed846200027a565b6200025b565b905082815260208101848484011115620003125762000311620001e0565b5b6200031f848285620002b0565b509392505050565b600082601f8301126200033f576200033e620001db565b5b815162000351848260208601620002dc565b91505092915050565b6000819050919050565b6200036f816200035a565b81146200037b57600080fd5b50565b6000815190506200038f8162000364565b92915050565b60008060408385031215620003af57620003ae620001d1565b5b600083015167ffffffffffffffff811115620003d057620003cf620001d6565b5b620003de8582860162000327565b9250506020620003f1858286016200037e565b9150509250929050565b600073ffffffffffffffffffffffffffffffffffffffff82169050919050565b60006200042882620003fb565b9050919050565b6200043a816200041b565b82525050565b60006020820190506200045760008301846200042f565b92915050565b600081519050919050565b7f4e487b7100000000000000000000000000000000000000000000000000000000600052602260045260246000fd5b60006002820490506001821680620004b057607f821691505b602082108103620004c657620004c562000468565b5b50919050565b60008190508160005260206000209050919050565b60006020601f8301049050919050565b600082821b905092915050565b600060088302620005307fffffffffffffffffffffffffffffffffffffffffffffffffffffffffffffffff82620004f1565b6200053c8683620004f1565b95508019841693508086168417925050509392505050565b6000819050919050565b60006200057f6200057962000573846200035a565b62000554565b6200035a565b9050919050565b6000819050919050565b6200059b836200055e565b620005b3620005aa8262000586565b848454620004fe565b825550505050565b600090565b620005ca620005bb565b620005d781848462000590565b505050565b5b81811015620005ff57620005f3600082620005c0565b600181019050620005dd565b5050565b601f8211156200064e576200061881620004cc565b6200062384620004e1565b8101602085101562000633578190505b6200064b6200064285620004e1565b830182620005dc565b50505b505050565b600082821c905092915050565b6000620006736000198460080262000653565b1980831691505092915050565b60006200068e838362000660565b9150826002028217905092915050565b620006a9826200045d565b67ffffffffffffffff811115620006c557620006c4620001f6565b5b620006d1825462000497565b620006de82828562000603565b600060209050601f83116001811462000716576000841562000701578287015190505b6200070d858262000680565b8655506200077d565b601f1984166200072686620004cc565b60005b82811015620007505784890151825560018201915060208501945060208101905062000729565b868310156200077057848901516200076c601f89168262000660565b8355505b6001600288020188555050505b505050505050565b61311f80620007956000396000f3fe6080604052600436106101295760003560e01c8063715018a6116100ab578063bd85b0391161006f578063bd85b039146103ce578063d5abeb011461040b578063e985e9c514610436578063f242432a14610473578063f2fde38b1461049c578063f5298aca146104c557610129565b8063715018a61461030f5780638225b247146103265780638da5cb5b1461034f5780639d1b464a1461037a578063a22cb465146103a557610129565b806318160ddd116100f257806318160ddd146102185780632eb2c2d6146102435780634e1273f41461026c5780634f558e79146102a95780636b20c454146102e657610129565b8062fdd58e1461012e57806301ffc9a71461016b57806302fe5305146101a85780630e89341c146101d15780631249c58b1461020e575b600080fd5b34801561013a57600080fd5b5061015560048036038101906101509190611f4b565b6104ee565b6040516101629190611f9a565b60405180910390f35b34801561017757600080fd5b50610192600480360381019061018d919061200d565b610548565b60405161019f9190612055565b60405180910390f35b3480156101b457600080fd5b506101cf60048036038101906101ca91906121b6565b61062a565b005b3480156101dd57600080fd5b506101f860048036038101906101f391906121ff565b61063e565b60405161020591906122ab565b60405180910390f35b6102166106d2565b005b34801561022457600080fd5b5061022d61078d565b60405161023a9190611f9a565b60405180910390f35b34801561024f57600080fd5b5061026a60048036038101906102659190612436565b610797565b005b34801561027857600080fd5b50610293600480360381019061028e91906125c8565b61083f565b6040516102a091906126fe565b60405180910390f35b3480156102b557600080fd5b506102d060048036038101906102cb91906121ff565b610948565b6040516102dd9190612055565b60405180910390f35b3480156102f257600080fd5b5061030d60048036038101906103089190612720565b61095c565b005b34801561031b57600080fd5b50610324610a08565b005b34801561033257600080fd5b5061034d600480360381019061034891906127ab565b610a1c565b005b34801561035b57600080fd5b50610364610a7d565b60405161037191906127fa565b60405180910390f35b34801561038657600080fd5b5061038f610aa7565b60405161039c9190611f9a565b60405180910390f35b3480156103b157600080fd5b506103cc60048036038101906103c79190612841565b610aad565b005b3480156103da57600080fd5b506103f560048036038101906103f091906121ff565b610ac3565b6040516104029190611f9a565b60405180910390f35b34801561041757600080fd5b50610420610ae0565b60405161042d9190611f9a565b60405180910390f35b34801561044257600080fd5b5061045d60048036038101906104589190612881565b610ae6565b60405161046a9190612055565b60405180910390f35b34801561047f57600080fd5b5061049a600480360381019061049591906128c1565b610b7a565b005b3480156104a857600080fd5b506104c360048036038101906104be9190612958565b610c22565b005b3480156104d157600080fd5b506104ec60048036038101906104e79190612985565b610ca8565b005b600080600083815260200190815260200160002060008473ffffffffffffffffffffffffffffffffffffffff1673ffffffffffffffffffffffffffffffffffffffff16815260200190815260200160002054905092915050565b60007fd9b67a26000000000000000000000000000000000000000000000000000000007bffffffffffffffffffffffffffffffffffffffffffffffffffffffff1916827bffffffffffffffffffffffffffffffffffffffffffffffffffffffff1916148061061357507f0e89341c000000000000000000000000000000000000000000000000000000007bffffffffffffffffffffffffffffffffffffffffffffffffffffffff1916827bffffffffffffffffffffffffffffffffffffffffffffffffffffffff1916145b80610623575061062282610d54565b5b9050919050565b610632610dbe565b61063b81610e45565b50565b60606002805461064d90612a07565b80601f016020809104026020016040519081016040528092919081815260200182805461067990612a07565b80156106c65780601f1061069b576101008083540402835291602001916106c6565b820191906000526020600020905b8154815290600101906020018083116106a957829003601f168201915b50505050509050919050565b6007543414610716576040517f08c379a000000000000000000000000000000000000000000000000000000000815260040161070d90612a84565b60405180910390fd5b6006546107236000610ac3565b1115610764576040517f08c379a000000000000000000000000000000000000000000000000000000000815260040161075b90612af0565b60405180910390fd5b610781336000600160405180602001604052806000815250610e58565b61078b6000610ef1565b565b6000600554905090565b60006107a1610f50565b90508073ffffffffffffffffffffffffffffffffffffffff168673ffffffffffffffffffffffffffffffffffffffff16141580156107e657506107e48682610ae6565b155b1561082a5780866040517fe237d922000000000000000000000000000000000000000000000000000000008152600401610821929190612b10565b60405180910390fd5b6108378686868686610f58565b505050505050565b6060815183511461088b57815183516040517f5b059991000000000000000000000000000000000000000000000000000000008152600401610882929190612b39565b60405180910390fd5b6000835167ffffffffffffffff8111156108a8576108a761208b565b5b6040519080825280602002602001820160405280156108d65781602001602082028036833780820191505090505b50905060005b845181101561093d576109136108fb828761105090919063ffffffff16565b61090e838761106490919063ffffffff16565b6104ee565b82828151811061092657610925612b62565b5b6020026020010181815250508060010190506108dc565b508091505092915050565b60008061095483610ac3565b119050919050565b610964610f50565b73ffffffffffffffffffffffffffffffffffffffff168373ffffffffffffffffffffffffffffffffffffffff16141580156109ad57506109ab836109a6610f50565b610ae6565b155b156109f8576109ba610f50565b836040517fe237d9220000000000000000000000000000000000000000000000000000000081526004016109ef929190612b10565b60405180910390fd5b610a03838383611078565b505050565b610a10610dbe565b610a1a600061110c565b565b610a27338383610ca8565b610a3082610ef1565b3373ffffffffffffffffffffffffffffffffffffffff166108fc6007549081150290604051600060405180830381858888f19350505050158015610a78573d6000803e3d6000fd5b505050565b6000600360009054906101000a900473ffffffffffffffffffffffffffffffffffffffff16905090565b60075481565b610abf610ab8610f50565b83836111d2565b5050565b600060046000838152602001908152602001600020549050919050565b60065481565b6000600160008473ffffffffffffffffffffffffffffffffffffffff1673ffffffffffffffffffffffffffffffffffffffff16815260200190815260200160002060008373ffffffffffffffffffffffffffffffffffffffff1673ffffffffffffffffffffffffffffffffffffffff16815260200190815260200160002060009054906101000a900460ff16905092915050565b6000610b84610f50565b90508073ffffffffffffffffffffffffffffffffffffffff168673ffffffffffffffffffffffffffffffffffffffff1614158015610bc95750610bc78682610ae6565b155b15610c0d5780866040517fe237d922000000000000000000000000000000000000000000000000000000008152600401610c04929190612b10565b60405180910390fd5b610c1a8686868686611342565b505050505050565b610c2a610dbe565b600073ffffffffffffffffffffffffffffffffffffffff168173ffffffffffffffffffffffffffffffffffffffff1603610c9c5760006040517f1e4fbdf7000000000000000000000000000000000000000000000000000000008152600401610c9391906127fa565b60405180910390fd5b610ca58161110c565b50565b610cb0610f50565b73ffffffffffffffffffffffffffffffffffffffff168373ffffffffffffffffffffffffffffffffffffffff1614158015610cf95750610cf783610cf2610f50565b610ae6565b155b15610d4457610d06610f50565b836040517fe237d922000000000000000000000000000000000000000000000000000000008152600401610d3b929190612b10565b60405180910390fd5b610d4f83838361144d565b505050565b60007f01ffc9a7000000000000000000000000000000000000000000000000000000007bffffffffffffffffffffffffffffffffffffffffffffffffffffffff1916827bffffffffffffffffffffffffffffffffffffffffffffffffffffffff1916149050919050565b610dc6610f50565b73ffffffffffffffffffffffffffffffffffffffff16610de4610a7d565b73ffffffffffffffffffffffffffffffffffffffff1614610e4357610e07610f50565b6040517f118cdaa7000000000000000000000000000000000000000000000000000000008152600401610e3a91906127fa565b60405180910390fd5b565b8060029081610e549190612d3d565b5050565b600073ffffffffffffffffffffffffffffffffffffffff168473ffffffffffffffffffffffffffffffffffffffff1603610eca5760006040517f57f447ce000000000000000000000000000000000000000000000000000000008152600401610ec191906127fa565b60405180910390fd5b600080610ed785856114f4565b91509150610ee9600087848487611524565b505050505050565b6000610efc82610ac3565b905060008103610f1a5766038d7ea4c6800060078190555050610f4d565b613e80818266038d7ea4c68000610f319190612e3e565b610f3b9190612e3e565b610f459190612eaf565b600781905550505b50565b600033905090565b600073ffffffffffffffffffffffffffffffffffffffff168473ffffffffffffffffffffffffffffffffffffffff1603610fca5760006040517f57f447ce000000000000000000000000000000000000000000000000000000008152600401610fc191906127fa565b60405180910390fd5b600073ffffffffffffffffffffffffffffffffffffffff168573ffffffffffffffffffffffffffffffffffffffff160361103c5760006040517f01a8351400000000000000000000000000000000000000000000000000000000815260040161103391906127fa565b60405180910390fd5b6110498585858585611524565b5050505050565b600060208202602084010151905092915050565b600060208202602084010151905092915050565b600073ffffffffffffffffffffffffffffffffffffffff168373ffffffffffffffffffffffffffffffffffffffff16036110ea5760006040517f01a835140000000000000000000000000000000000000000000000000000000081526004016110e191906127fa565b60405180910390fd5b611107836000848460405180602001604052806000815250611524565b505050565b6000600360009054906101000a900473ffffffffffffffffffffffffffffffffffffffff16905081600360006101000a81548173ffffffffffffffffffffffffffffffffffffffff021916908373ffffffffffffffffffffffffffffffffffffffff1602179055508173ffffffffffffffffffffffffffffffffffffffff168173ffffffffffffffffffffffffffffffffffffffff167f8be0079c531659141344cd1fd0a4f28419497f9722a3daafe3b4186f6b6457e060405160405180910390a35050565b600073ffffffffffffffffffffffffffffffffffffffff168273ffffffffffffffffffffffffffffffffffffffff16036112445760006040517fced3e10000000000000000000000000000000000000000000000000000000000815260040161123b91906127fa565b60405180910390fd5b80600160008573ffffffffffffffffffffffffffffffffffffffff1673ffffffffffffffffffffffffffffffffffffffff16815260200190815260200160002060008473ffffffffffffffffffffffffffffffffffffffff1673ffffffffffffffffffffffffffffffffffffffff16815260200190815260200160002060006101000a81548160ff0219169083151502179055508173ffffffffffffffffffffffffffffffffffffffff168373ffffffffffffffffffffffffffffffffffffffff167f17307eab39ab6107e8899845ad3d59bd9653f200f220920489ca2b5937696c31836040516113359190612055565b60405180910390a3505050565b600073ffffffffffffffffffffffffffffffffffffffff168473ffffffffffffffffffffffffffffffffffffffff16036113b45760006040517f57f447ce0000000000000000000000000000000000000000000000000000000081526004016113ab91906127fa565b60405180910390fd5b600073ffffffffffffffffffffffffffffffffffffffff168573ffffffffffffffffffffffffffffffffffffffff16036114265760006040517f01a8351400000000000000000000000000000000000000000000000000000000815260040161141d91906127fa565b60405180910390fd5b60008061143385856114f4565b915091506114448787848487611524565b50505050505050565b600073ffffffffffffffffffffffffffffffffffffffff168373ffffffffffffffffffffffffffffffffffffffff16036114bf5760006040517f01a835140000000000000000000000000000000000000000000000000000000081526004016114b691906127fa565b60405180910390fd5b6000806114cc84846114f4565b915091506114ed856000848460405180602001604052806000815250611524565b5050505050565b60608060405191506001825283602083015260408201905060018152826020820152604081016040529250929050565b611530858585856115d6565b600073ffffffffffffffffffffffffffffffffffffffff168473ffffffffffffffffffffffffffffffffffffffff16146115cf57600061156e610f50565b905060018451036115be57600061158f60008661106490919063ffffffff16565b905060006115a760008661106490919063ffffffff16565b90506115b78389898585896115e8565b50506115cd565b6115cc81878787878761179c565b5b505b5050505050565b6115e284848484611950565b50505050565b60008473ffffffffffffffffffffffffffffffffffffffff163b1115611794578373ffffffffffffffffffffffffffffffffffffffff1663f23a6e6187878686866040518663ffffffff1660e01b8152600401611649959493929190612f35565b6020604051808303816000875af192505050801561168557506040513d601f19601f820116820180604052508101906116829190612fa4565b60015b611709573d80600081146116b5576040519150601f19603f3d011682016040523d82523d6000602084013e6116ba565b606091505b50600081510361170157846040517f57f447ce0000000000000000000000000000000000000000000000000000000081526004016116f891906127fa565b60405180910390fd5b805181602001fd5b63f23a6e6160e01b7bffffffffffffffffffffffffffffffffffffffffffffffffffffffff1916817bffffffffffffffffffffffffffffffffffffffffffffffffffffffff19161461179257846040517f57f447ce00000000000000000000000000000000000000000000000000000000815260040161178991906127fa565b60405180910390fd5b505b505050505050565b60008473ffffffffffffffffffffffffffffffffffffffff163b1115611948578373ffffffffffffffffffffffffffffffffffffffff1663bc197c8187878686866040518663ffffffff1660e01b81526004016117fd959493929190612fd1565b6020604051808303816000875af192505050801561183957506040513d601f19601f820116820180604052508101906118369190612fa4565b60015b6118bd573d8060008114611869576040519150601f19603f3d011682016040523d82523d6000602084013e61186e565b606091505b5060008151036118b557846040517f57f447ce0000000000000000000000000000000000000000000000000000000081526004016118ac91906127fa565b60405180910390fd5b805181602001fd5b63bc197c8160e01b7bffffffffffffffffffffffffffffffffffffffffffffffffffffffff1916817bffffffffffffffffffffffffffffffffffffffffffffffffffffffff19161461194657846040517f57f447ce00000000000000000000000000000000000000000000000000000000815260040161193d91906127fa565b60405180910390fd5b505b505050505050565b61195c84848484611afb565b600073ffffffffffffffffffffffffffffffffffffffff168473ffffffffffffffffffffffffffffffffffffffff1603611a36576000805b8351811015611a1a5760008382815181106119b2576119b1612b62565b5b6020026020010151905080600460008785815181106119d4576119d3612b62565b5b6020026020010151815260200190815260200160002060008282546119f99190613039565b925050819055508083611a0c9190613039565b925050806001019050611994565b508060056000828254611a2d9190613039565b92505081905550505b600073ffffffffffffffffffffffffffffffffffffffff168373ffffffffffffffffffffffffffffffffffffffff1603611af5576000805b8351811015611ae2576000838281518110611a8c57611a8b612b62565b5b602002602001015190508060046000878581518110611aae57611aad612b62565b5b6020026020010151815260200190815260200160002060008282540392505081905550808301925050806001019050611a6e565b5080600560008282540392505081905550505b50505050565b8051825114611b4557815181516040517f5b059991000000000000000000000000000000000000000000000000000000008152600401611b3c929190612b39565b60405180910390fd5b6000611b4f610f50565b905060005b8351811015611d5e576000611b72828661106490919063ffffffff16565b90506000611b89838661106490919063ffffffff16565b9050600073ffffffffffffffffffffffffffffffffffffffff168873ffffffffffffffffffffffffffffffffffffffff1614611cb657600080600084815260200190815260200160002060008a73ffffffffffffffffffffffffffffffffffffffff1673ffffffffffffffffffffffffffffffffffffffff16815260200190815260200160002054905081811015611c5e57888183856040517f03dee4c5000000000000000000000000000000000000000000000000000000008152600401611c55949392919061306d565b60405180910390fd5b81810360008085815260200190815260200160002060008b73ffffffffffffffffffffffffffffffffffffffff1673ffffffffffffffffffffffffffffffffffffffff16815260200190815260200160002081905550505b600073ffffffffffffffffffffffffffffffffffffffff168773ffffffffffffffffffffffffffffffffffffffff1614611d51578060008084815260200190815260200160002060008973ffffffffffffffffffffffffffffffffffffffff1673ffffffffffffffffffffffffffffffffffffffff1681526020019081526020016000206000828254611d499190613039565b925050819055505b5050806001019050611b54565b506001835103611e1d576000611d7e60008561106490919063ffffffff16565b90506000611d9660008561106490919063ffffffff16565b90508573ffffffffffffffffffffffffffffffffffffffff168773ffffffffffffffffffffffffffffffffffffffff168473ffffffffffffffffffffffffffffffffffffffff167fc3d58168c5ae7397731d063d5bbf3d657854427343f4c083240f7aacaa2d0f628585604051611e0e929190612b39565b60405180910390a45050611e9c565b8373ffffffffffffffffffffffffffffffffffffffff168573ffffffffffffffffffffffffffffffffffffffff168273ffffffffffffffffffffffffffffffffffffffff167f4a39dc06d4c0dbc64b70af90fd698a233a518aa5d07e595d983b8c0526c8f7fb8686604051611e939291906130b2565b60405180910390a45b5050505050565b6000604051905090565b600080fd5b600080fd5b600073ffffffffffffffffffffffffffffffffffffffff82169050919050565b6000611ee282611eb7565b9050919050565b611ef281611ed7565b8114611efd57600080fd5b50565b600081359050611f0f81611ee9565b92915050565b6000819050919050565b611f2881611f15565b8114611f3357600080fd5b50565b600081359050611f4581611f1f565b92915050565b60008060408385031215611f6257611f61611ead565b5b6000611f7085828601611f00565b9250506020611f8185828601611f36565b9150509250929050565b611f9481611f15565b82525050565b6000602082019050611faf6000830184611f8b565b92915050565b60007fffffffff0000000000000000000000000000000000000000000000000000000082169050919050565b611fea81611fb5565b8114611ff557600080fd5b50565b60008135905061200781611fe1565b92915050565b60006020828403121561202357612022611ead565b5b600061203184828501611ff8565b91505092915050565b60008115159050919050565b61204f8161203a565b82525050565b600060208201905061206a6000830184612046565b92915050565b600080fd5b600080fd5b6000601f19601f8301169050919050565b7f4e487b7100000000000000000000000000000000000000000000000000000000600052604160045260246000fd5b6120c38261207a565b810181811067ffffffffffffffff821117156120e2576120e161208b565b5b80604052505050565b60006120f5611ea3565b905061210182826120ba565b919050565b600067ffffffffffffffff8211156121215761212061208b565b5b61212a8261207a565b9050602081019050919050565b82818337600083830152505050565b600061215961215484612106565b6120eb565b90508281526020810184848401111561217557612174612075565b5b612180848285612137565b509392505050565b600082601f83011261219d5761219c612070565b5b81356121ad848260208601612146565b91505092915050565b6000602082840312156121cc576121cb611ead565b5b600082013567ffffffffffffffff8111156121ea576121e9611eb2565b5b6121f684828501612188565b91505092915050565b60006020828403121561221557612214611ead565b5b600061222384828501611f36565b91505092915050565b600081519050919050565b600082825260208201905092915050565b60005b8381101561226657808201518184015260208101905061224b565b60008484015250505050565b600061227d8261222c565b6122878185612237565b9350612297818560208601612248565b6122a08161207a565b840191505092915050565b600060208201905081810360008301526122c58184612272565b905092915050565b600067ffffffffffffffff8211156122e8576122e761208b565b5b602082029050602081019050919050565b600080fd5b600061231161230c846122cd565b6120eb565b90508083825260208201905060208402830185811115612334576123336122f9565b5b835b8181101561235d57806123498882611f36565b845260208401935050602081019050612336565b5050509392505050565b600082601f83011261237c5761237b612070565b5b813561238c8482602086016122fe565b91505092915050565b600067ffffffffffffffff8211156123b0576123af61208b565b5b6123b98261207a565b9050602081019050919050565b60006123d96123d484612395565b6120eb565b9050828152602081018484840111156123f5576123f4612075565b5b612400848285612137565b509392505050565b600082601f83011261241d5761241c612070565b5b813561242d8482602086016123c6565b91505092915050565b600080600080600060a0868803121561245257612451611ead565b5b600061246088828901611f00565b955050602061247188828901611f00565b945050604086013567ffffffffffffffff81111561249257612491611eb2565b5b61249e88828901612367565b935050606086013567ffffffffffffffff8111156124bf576124be611eb2565b5b6124cb88828901612367565b925050608086013567ffffffffffffffff8111156124ec576124eb611eb2565b5b6124f888828901612408565b9150509295509295909350565b600067ffffffffffffffff8211156125205761251f61208b565b5b602082029050602081019050919050565b600061254461253f84612505565b6120eb565b90508083825260208201905060208402830185811115612567576125666122f9565b5b835b81811015612590578061257c8882611f00565b845260208401935050602081019050612569565b5050509392505050565b600082601f8301126125af576125ae612070565b5b81356125bf848260208601612531565b91505092915050565b600080604083850312156125df576125de611ead565b5b600083013567ffffffffffffffff8111156125fd576125fc611eb2565b5b6126098582860161259a565b925050602083013567ffffffffffffffff81111561262a57612629611eb2565b5b61263685828601612367565b9150509250929050565b600081519050919050565b600082825260208201905092915050565b6000819050602082019050919050565b61267581611f15565b82525050565b6000612687838361266c565b60208301905092915050565b6000602082019050919050565b60006126ab82612640565b6126b5818561264b565b93506126c08361265c565b8060005b838110156126f15781516126d8888261267b565b97506126e383612693565b9250506001810190506126c4565b5085935050505092915050565b6000602082019050818103600083015261271881846126a0565b905092915050565b60008060006060848603121561273957612738611ead565b5b600061274786828701611f00565b935050602084013567ffffffffffffffff81111561276857612767611eb2565b5b61277486828701612367565b925050604084013567ffffffffffffffff81111561279557612794611eb2565b5b6127a186828701612367565b9150509250925092565b600080604083850312156127c2576127c1611ead565b5b60006127d085828601611f36565b92505060206127e185828601611f36565b9150509250929050565b6127f481611ed7565b82525050565b600060208201905061280f60008301846127eb565b92915050565b61281e8161203a565b811461282957600080fd5b50565b60008135905061283b81612815565b92915050565b6000806040838503121561285857612857611ead565b5b600061286685828601611f00565b92505060206128778582860161282c565b9150509250929050565b6000806040838503121561289857612897611ead565b5b60006128a685828601611f00565b92505060206128b785828601611f00565b9150509250929050565b600080600080600060a086880312156128dd576128dc611ead565b5b60006128eb88828901611f00565b95505060206128fc88828901611f00565b945050604061290d88828901611f36565b935050606061291e88828901611f36565b925050608086013567ffffffffffffffff81111561293f5761293e611eb2565b5b61294b88828901612408565b9150509295509295909350565b60006020828403121561296e5761296d611ead565b5b600061297c84828501611f00565b91505092915050565b60008060006060848603121561299e5761299d611ead565b5b60006129ac86828701611f00565b93505060206129bd86828701611f36565b92505060406129ce86828701611f36565b9150509250925092565b7f4e487b7100000000000000000000000000000000000000000000000000000000600052602260045260246000fd5b60006002820490506001821680612a1f57607f821691505b602082108103612a3257612a316129d8565b5b50919050565b7f6e6f7420657175616c0000000000000000000000000000000000000000000000600082015250565b6000612a6e600983612237565b9150612a7982612a38565b602082019050919050565b60006020820190508181036000830152612a9d81612a61565b9050919050565b7f4d79546f6b656e3a204d617820737570706c7920657863656564000000000000600082015250565b6000612ada601a83612237565b9150612ae582612aa4565b602082019050919050565b60006020820190508181036000830152612b0981612acd565b9050919050565b6000604082019050612b2560008301856127eb565b612b3260208301846127eb565b9392505050565b6000604082019050612b4e6000830185611f8b565b612b5b6020830184611f8b565b9392505050565b7f4e487b7100000000000000000000000000000000000000000000000000000000600052603260045260246000fd5b60008190508160005260206000209050919050565b60006020601f8301049050919050565b600082821b905092915050565b600060088302612bf37fffffffffffffffffffffffffffffffffffffffffffffffffffffffffffffffff82612bb6565b612bfd8683612bb6565b95508019841693508086168417925050509392505050565b6000819050919050565b6000612c3a612c35612c3084611f15565b612c15565b611f15565b9050919050565b6000819050919050565b612c5483612c1f565b612c68612c6082612c41565b848454612bc3565b825550505050565b600090565b612c7d612c70565b612c88818484612c4b565b505050565b5b81811015612cac57612ca1600082612c75565b600181019050612c8e565b5050565b601f821115612cf157612cc281612b91565b612ccb84612ba6565b81016020851015612cda578190505b612cee612ce685612ba6565b830182612c8d565b50505b505050565b600082821c905092915050565b6000612d1460001984600802612cf6565b1980831691505092915050565b6000612d2d8383612d03565b9150826002028217905092915050565b612d468261222c565b67ffffffffffffffff811115612d5f57612d5e61208b565b5b612d698254612a07565b612d74828285612cb0565b600060209050601f831160018114612da75760008415612d95578287015190505b612d9f8582612d21565b865550612e07565b601f198416612db586612b91565b60005b82811015612ddd57848901518255600182019150602085019450602081019050612db8565b86831015612dfa5784890151612df6601f891682612d03565b8355505b6001600288020188555050505b505050505050565b7f4e487b7100000000000000000000000000000000000000000000000000000000600052601160045260246000fd5b6000612e4982611f15565b9150612e5483611f15565b9250828202612e6281611f15565b91508282048414831517612e7957612e78612e0f565b5b5092915050565b7f4e487b7100000000000000000000000000000000000000000000000000000000600052601260045260246000fd5b6000612eba82611f15565b9150612ec583611f15565b925082612ed557612ed4612e80565b5b828204905092915050565b600081519050919050565b600082825260208201905092915050565b6000612f0782612ee0565b612f118185612eeb565b9350612f21818560208601612248565b612f2a8161207a565b840191505092915050565b600060a082019050612f4a60008301886127eb565b612f5760208301876127eb565b612f646040830186611f8b565b612f716060830185611f8b565b8181036080830152612f838184612efc565b90509695505050505050565b600081519050612f9e81611fe1565b92915050565b600060208284031215612fba57612fb9611ead565b5b6000612fc884828501612f8f565b91505092915050565b600060a082019050612fe660008301886127eb565b612ff360208301876127eb565b818103604083015261300581866126a0565b9050818103606083015261301981856126a0565b9050818103608083015261302d8184612efc565b90509695505050505050565b600061304482611f15565b915061304f83611f15565b925082820190508082111561306757613066612e0f565b5b92915050565b600060808201905061308260008301876127eb565b61308f6020830186611f8b565b61309c6040830185611f8b565b6130a96060830184611f8b565b95945050505050565b600060408201905081810360008301526130cc81856126a0565b905081810360208301526130e081846126a0565b9050939250505056fea26469706673582212209841de0f7a3f7837b868149f8aa9bc32effd65d74c21dac4639b7af56e7eaf3564736f6c63430008180033",
  "linkReferences": {},
  "deployedLinkReferences": {}
}